{
  "contractName": "Lottery",
  "abi": [
    {
      "inputs": [],
      "stateMutability": "nonpayable",
      "type": "constructor"
    },
    {
      "inputs": [],
      "name": "lotteryId",
      "outputs": [
        {
          "internalType": "uint256",
          "name": "",
          "type": "uint256"
        }
      ],
      "stateMutability": "view",
      "type": "function",
      "constant": true
    },
    {
      "inputs": [],
      "name": "owner",
      "outputs": [
        {
          "internalType": "address",
          "name": "",
          "type": "address"
        }
      ],
      "stateMutability": "view",
      "type": "function",
      "constant": true
    },
    {
      "inputs": [
        {
          "internalType": "uint256",
          "name": "",
          "type": "uint256"
        }
      ],
      "name": "players",
      "outputs": [
        {
          "internalType": "address payable",
          "name": "",
          "type": "address"
        }
      ],
      "stateMutability": "view",
      "type": "function",
      "constant": true
    },
    {
      "inputs": [
        {
          "internalType": "uint256",
          "name": "",
          "type": "uint256"
        }
      ],
      "name": "winners",
      "outputs": [
        {
          "internalType": "address",
          "name": "",
          "type": "address"
        }
      ],
      "stateMutability": "view",
      "type": "function",
      "constant": true
    },
    {
      "inputs": [],
      "name": "enter",
      "outputs": [],
      "stateMutability": "payable",
      "type": "function",
      "payable": true
    },
    {
      "inputs": [],
      "name": "getPlayers",
      "outputs": [
        {
          "internalType": "address payable[]",
          "name": "",
          "type": "address[]"
        }
      ],
      "stateMutability": "view",
      "type": "function",
      "constant": true
    },
    {
      "inputs": [],
      "name": "getbalance",
      "outputs": [
        {
          "internalType": "uint256",
          "name": "",
          "type": "uint256"
        }
      ],
      "stateMutability": "view",
      "type": "function",
      "constant": true
    },
    {
      "inputs": [],
      "name": "getLotteryId",
      "outputs": [
        {
          "internalType": "uint256",
          "name": "",
          "type": "uint256"
        }
      ],
      "stateMutability": "view",
      "type": "function",
      "constant": true
    },
    {
      "inputs": [],
      "name": "getRandomNumber",
      "outputs": [
        {
          "internalType": "uint256",
          "name": "",
          "type": "uint256"
        }
      ],
      "stateMutability": "view",
      "type": "function",
      "constant": true
    },
    {
      "inputs": [],
      "name": "pickWinner",
      "outputs": [],
      "stateMutability": "nonpayable",
      "type": "function"
    },
    {
      "inputs": [],
      "name": "getWinners",
      "outputs": [
        {
          "internalType": "address[]",
          "name": "",
          "type": "address[]"
        }
      ],
      "stateMutability": "view",
      "type": "function",
      "constant": true
    }
  ],
  "bytecode": "0x608060405234801561001057600080fd5b50336000806101000a81548173ffffffffffffffffffffffffffffffffffffffff021916908373ffffffffffffffffffffffffffffffffffffffff1602179055506000600381905550610dbe806100686000396000f3fe60806040526004361061009c5760003560e01c8063a2fb117511610064578063a2fb117514610164578063dbdff2c1146101a1578063df15c37e146101cc578063e580f47b146101f7578063e97dcb6214610222578063f71d96cb1461022c5761009c565b80634d9b3d5d146100a15780635d495aea146100cc5780638b5b9ccc146100e35780638da5cb5b1461010e578063900aafaf14610139575b600080fd5b3480156100ad57600080fd5b506100b6610269565b6040516100c39190610870565b60405180910390f35b3480156100d857600080fd5b506100e1610271565b005b3480156100ef57600080fd5b506100f86104bc565b604051610105919061097b565b60405180910390f35b34801561011a57600080fd5b5061012361054a565b60405161013091906109be565b60405180910390f35b34801561014557600080fd5b5061014e61056e565b60405161015b9190610870565b60405180910390f35b34801561017057600080fd5b5061018b60048036038101906101869190610a0a565b610578565b60405161019891906109be565b60405180910390f35b3480156101ad57600080fd5b506101b66105b7565b6040516101c39190610870565b60405180910390f35b3480156101d857600080fd5b506101e161060b565b6040516101ee9190610af5565b60405180910390f35b34801561020357600080fd5b5061020c610699565b6040516102199190610870565b60405180910390f35b61022a61069f565b005b34801561023857600080fd5b50610253600480360381019061024e9190610a0a565b610771565b6040516102609190610b26565b60405180910390f35b600047905090565b60008054906101000a900473ffffffffffffffffffffffffffffffffffffffff1673ffffffffffffffffffffffffffffffffffffffff163373ffffffffffffffffffffffffffffffffffffffff16146102ff576040517f08c379a00000000000000000000000000000000000000000000000000000000081526004016102f690610b9e565b60405180910390fd5b600060018054905061030f6105b7565b6103199190610bed565b90506001818154811061032f5761032e610c1e565b5b9060005260206000200160009054906101000a900473ffffffffffffffffffffffffffffffffffffffff1673ffffffffffffffffffffffffffffffffffffffff166108fc479081150290604051600060405180830381858888f1935050505015801561039f573d6000803e3d6000fd5b506002600182815481106103b6576103b5610c1e565b5b9060005260206000200160009054906101000a900473ffffffffffffffffffffffffffffffffffffffff169080600181540180825580915050600190039060005260206000200160009091909190916101000a81548173ffffffffffffffffffffffffffffffffffffffff021916908373ffffffffffffffffffffffffffffffffffffffff1602179055506003600081548092919061045490610c7c565b9190505550600067ffffffffffffffff81111561047457610473610cc4565b5b6040519080825280602002602001820160405280156104a25781602001602082028036833780820191505090505b50600190805190602001906104b89291906107b0565b5050565b6060600180548060200260200160405190810160405280929190818152602001828054801561054057602002820191906000526020600020905b8160009054906101000a900473ffffffffffffffffffffffffffffffffffffffff1673ffffffffffffffffffffffffffffffffffffffff16815260200190600101908083116104f6575b5050505050905090565b60008054906101000a900473ffffffffffffffffffffffffffffffffffffffff1681565b6000600354905090565b6002818154811061058857600080fd5b906000526020600020016000915054906101000a900473ffffffffffffffffffffffffffffffffffffffff1681565b60008060009054906101000a900473ffffffffffffffffffffffffffffffffffffffff16426040516020016105ed929190610d5c565b6040516020818303038152906040528051906020012060001c905090565b6060600280548060200260200160405190810160405280929190818152602001828054801561068f57602002820191906000526020600020905b8160009054906101000a900473ffffffffffffffffffffffffffffffffffffffff1673ffffffffffffffffffffffffffffffffffffffff1681526020019060010190808311610645575b5050505050905090565b60035481565b67016345785d8a00003410156106b457600080fd5b3373ffffffffffffffffffffffffffffffffffffffff1660008054906101000a900473ffffffffffffffffffffffffffffffffffffffff1673ffffffffffffffffffffffffffffffffffffffff160361070c57600080fd5b6001339080600181540180825580915050600190039060005260206000200160009091909190916101000a81548173ffffffffffffffffffffffffffffffffffffffff021916908373ffffffffffffffffffffffffffffffffffffffff160217905550565b6001818154811061078157600080fd5b906000526020600020016000915054906101000a900473ffffffffffffffffffffffffffffffffffffffff1681565b828054828255906000526020600020908101928215610829579160200282015b828111156108285782518260006101000a81548173ffffffffffffffffffffffffffffffffffffffff021916908373ffffffffffffffffffffffffffffffffffffffff160217905550916020019190600101906107d0565b5b509050610836919061083a565b5090565b5b8082111561085357600081600090555060010161083b565b5090565b6000819050919050565b61086a81610857565b82525050565b60006020820190506108856000830184610861565b92915050565b600081519050919050565b600082825260208201905092915050565b6000819050602082019050919050565b600073ffffffffffffffffffffffffffffffffffffffff82169050919050565b60006108e2826108b7565b9050919050565b6108f2816108d7565b82525050565b600061090483836108e9565b60208301905092915050565b6000602082019050919050565b60006109288261088b565b6109328185610896565b935061093d836108a7565b8060005b8381101561096e57815161095588826108f8565b975061096083610910565b925050600181019050610941565b5085935050505092915050565b60006020820190508181036000830152610995818461091d565b905092915050565b60006109a8826108b7565b9050919050565b6109b88161099d565b82525050565b60006020820190506109d360008301846109af565b92915050565b600080fd5b6109e781610857565b81146109f257600080fd5b50565b600081359050610a04816109de565b92915050565b600060208284031215610a2057610a1f6109d9565b5b6000610a2e848285016109f5565b91505092915050565b600081519050919050565b600082825260208201905092915050565b6000819050602082019050919050565b610a6c8161099d565b82525050565b6000610a7e8383610a63565b60208301905092915050565b6000602082019050919050565b6000610aa282610a37565b610aac8185610a42565b9350610ab783610a53565b8060005b83811015610ae8578151610acf8882610a72565b9750610ada83610a8a565b925050600181019050610abb565b5085935050505092915050565b60006020820190508181036000830152610b0f8184610a97565b905092915050565b610b20816108d7565b82525050565b6000602082019050610b3b6000830184610b17565b92915050565b600082825260208201905092915050565b7f4f6e6c79206f776e65722068617320636f6e74726f6c00000000000000000000600082015250565b6000610b88601683610b41565b9150610b9382610b52565b602082019050919050565b60006020820190508181036000830152610bb781610b7b565b9050919050565b7f4e487b7100000000000000000000000000000000000000000000000000000000600052601260045260246000fd5b6000610bf882610857565b9150610c0383610857565b925082610c1357610c12610bbe565b5b828206905092915050565b7f4e487b7100000000000000000000000000000000000000000000000000000000600052603260045260246000fd5b7f4e487b7100000000000000000000000000000000000000000000000000000000600052601160045260246000fd5b6000610c8782610857565b91507fffffffffffffffffffffffffffffffffffffffffffffffffffffffffffffffff8203610cb957610cb8610c4d565b5b600182019050919050565b7f4e487b7100000000000000000000000000000000000000000000000000000000600052604160045260246000fd5b60008160601b9050919050565b6000610d0b82610cf3565b9050919050565b6000610d1d82610d00565b9050919050565b610d35610d308261099d565b610d12565b82525050565b6000819050919050565b610d56610d5182610857565b610d3b565b82525050565b6000610d688285610d24565b601482019150610d788284610d45565b602082019150819050939250505056fea2646970667358221220100b4d1601e995da5a3a7cfe192c66a266711b654f2ac1d4f938110ead2f208864736f6c63430008110033",
  "immutableReferences": {},
  "source": "//SPDX-License-Identifier:MIT\npragma solidity ^0.8.17;\n\ncontract Lottery {\n    address public owner;\n    address payable[] public players;\n    address[] public winners;\n    uint public lotteryId;\n\n    constructor(){\n        owner = msg.sender;\n        lotteryId = 0;\n    }\n\n    function enter()public payable {\n        require(msg.value >= 0.1 ether);\n        require(owner != msg.sender);\n        players.push(payable(msg.sender));\n    }\n\n    function  getPlayers() public view returns(address payable[] memory) {\n        return players;\n    }\n\n    function getbalance() public view returns(uint) {\n        return address(this).balance;\n    }\n\n    function getLotteryId() public view returns(uint) {\n        return lotteryId;\n    }\n    \n    function getRandomNumber() public view returns(uint) {\n        return uint(keccak256(abi.encodePacked(owner, block.timestamp)));\n    }\n\n    function pickWinner() public onlyOwner {\n        uint randomIndex = getRandomNumber() % players.length;\n        players[randomIndex].transfer(address(this).balance);\n        winners.push(players[randomIndex]);\n        lotteryId++;\n        players = new address payable[](0);\n    }\n  \n    function getWinners() public view returns(address[] memory) {\n        return winners;\n    }\n\n    modifier onlyOwner() {\n        require(msg.sender == owner,\"Only owner has control\");\n        _;\n    }\n\n}",
  "sourcePath": "/home/kite/dapps/LotteryDapp/backend/contracts/Lottery.sol",
  "compiler": {
    "name": "solc",
    "version": "0.8.17+commit.8df45f5f.Emscripten.clang"
  },
  "schemaVersion": "3.4.11",
  "updatedAt": "2023-01-28T05:12:36.796Z",
  "networkType": "ethereum",
  "devdoc": {
    "kind": "dev",
    "methods": {},
    "version": 1
  },
  "userdoc": {
    "kind": "user",
    "methods": {},
    "version": 1
  }
}