{
  "contractName": "Lottery",
  "abi": [
    {
      "inputs": [
        {
          "internalType": "uint64",
          "name": "subscriptionId",
          "type": "uint64"
        }
      ],
      "stateMutability": "nonpayable",
      "type": "constructor"
    },
    {
      "inputs": [
        {
          "internalType": "address",
          "name": "have",
          "type": "address"
        },
        {
          "internalType": "address",
          "name": "want",
          "type": "address"
        }
      ],
      "name": "OnlyCoordinatorCanFulfill",
      "type": "error"
    },
    {
      "anonymous": false,
      "inputs": [
        {
          "indexed": false,
          "internalType": "uint256",
          "name": "requestId",
          "type": "uint256"
        },
        {
          "indexed": false,
          "internalType": "uint256[]",
          "name": "randomWords",
          "type": "uint256[]"
        }
      ],
      "name": "RequestFulfilled",
      "type": "event"
    },
    {
      "anonymous": false,
      "inputs": [
        {
          "indexed": false,
          "internalType": "uint256",
          "name": "requestId",
          "type": "uint256"
        },
        {
          "indexed": false,
          "internalType": "uint32",
          "name": "numWords",
          "type": "uint32"
        }
      ],
      "name": "RequestSent",
      "type": "event"
    },
    {
      "inputs": [],
      "name": "contractOwner",
      "outputs": [
        {
          "internalType": "address",
          "name": "",
          "type": "address"
        }
      ],
      "stateMutability": "view",
      "type": "function"
    },
    {
      "inputs": [],
      "name": "lastRequestId",
      "outputs": [
        {
          "internalType": "uint256",
          "name": "",
          "type": "uint256"
        }
      ],
      "stateMutability": "view",
      "type": "function"
    },
    {
      "inputs": [],
      "name": "lotteryId",
      "outputs": [
        {
          "internalType": "uint256",
          "name": "",
          "type": "uint256"
        }
      ],
      "stateMutability": "view",
      "type": "function"
    },
    {
      "inputs": [
        {
          "internalType": "uint256",
          "name": "",
          "type": "uint256"
        }
      ],
      "name": "players",
      "outputs": [
        {
          "internalType": "address payable",
          "name": "",
          "type": "address"
        }
      ],
      "stateMutability": "view",
      "type": "function"
    },
    {
      "inputs": [],
      "name": "randomResult",
      "outputs": [
        {
          "internalType": "int256",
          "name": "",
          "type": "int256"
        }
      ],
      "stateMutability": "view",
      "type": "function"
    },
    {
      "inputs": [
        {
          "internalType": "uint256",
          "name": "requestId",
          "type": "uint256"
        },
        {
          "internalType": "uint256[]",
          "name": "randomWords",
          "type": "uint256[]"
        }
      ],
      "name": "rawFulfillRandomWords",
      "outputs": [],
      "stateMutability": "nonpayable",
      "type": "function"
    },
    {
      "inputs": [
        {
          "internalType": "uint256",
          "name": "",
          "type": "uint256"
        }
      ],
      "name": "requestIds",
      "outputs": [
        {
          "internalType": "uint256",
          "name": "",
          "type": "uint256"
        }
      ],
      "stateMutability": "view",
      "type": "function"
    },
    {
      "inputs": [
        {
          "internalType": "uint256",
          "name": "",
          "type": "uint256"
        }
      ],
      "name": "s_requests",
      "outputs": [
        {
          "internalType": "bool",
          "name": "fulfilled",
          "type": "bool"
        }
      ],
      "stateMutability": "view",
      "type": "function"
    },
    {
      "inputs": [
        {
          "internalType": "uint256",
          "name": "",
          "type": "uint256"
        }
      ],
      "name": "winners",
      "outputs": [
        {
          "internalType": "address",
          "name": "",
          "type": "address"
        }
      ],
      "stateMutability": "view",
      "type": "function"
    },
    {
      "inputs": [],
      "name": "payWinner",
      "outputs": [],
      "stateMutability": "nonpayable",
      "type": "function"
    },
    {
      "inputs": [
        {
          "internalType": "uint256",
          "name": "_requestId",
          "type": "uint256"
        }
      ],
      "name": "getRequestStatus",
      "outputs": [
        {
          "internalType": "bool",
          "name": "fulfilled",
          "type": "bool"
        },
        {
          "internalType": "uint256[]",
          "name": "randomWords",
          "type": "uint256[]"
        }
      ],
      "stateMutability": "view",
      "type": "function"
    },
    {
      "inputs": [],
      "name": "enter",
      "outputs": [],
      "stateMutability": "payable",
      "type": "function"
    },
    {
      "inputs": [],
      "name": "getPlayers",
      "outputs": [
        {
          "internalType": "address payable[]",
          "name": "",
          "type": "address[]"
        }
      ],
      "stateMutability": "view",
      "type": "function"
    },
    {
      "inputs": [],
      "name": "getBalance",
      "outputs": [
        {
          "internalType": "uint256",
          "name": "",
          "type": "uint256"
        }
      ],
      "stateMutability": "view",
      "type": "function"
    },
    {
      "inputs": [],
      "name": "getLotteryId",
      "outputs": [
        {
          "internalType": "uint256",
          "name": "",
          "type": "uint256"
        }
      ],
      "stateMutability": "view",
      "type": "function"
    },
    {
      "inputs": [],
      "name": "pickWinner",
      "outputs": [
        {
          "internalType": "uint256",
          "name": "requestId",
          "type": "uint256"
        }
      ],
      "stateMutability": "nonpayable",
      "type": "function"
    },
    {
      "inputs": [],
      "name": "getWinners",
      "outputs": [
        {
          "internalType": "address[]",
          "name": "",
          "type": "address[]"
        }
      ],
      "stateMutability": "view",
      "type": "function"
    }
  ],
  "bytecode": "0x60a0604052732ca8e0c643bde4c2e08ab1fa0da3401adad7734d600160006101000a81548173ffffffffffffffffffffffffffffffffffffffff021916908373ffffffffffffffffffffffffffffffffffffffff1602179055507f79d3d8832d904592c0bf9818b621522c988bb8b0c05cdc3b15aea1b6e8db0c1560001b600255619c40600360006101000a81548163ffffffff021916908363ffffffff16021790555060038060046101000a81548161ffff021916908361ffff1602179055506001600360066101000a81548163ffffffff021916908363ffffffff1602179055507fffffffffffffffffffffffffffffffffffffffffffffffffffffffffffffffff600c553480156200011357600080fd5b5060405162001b4338038062001b438339818101604052810190620001399190620002b6565b600160009054906101000a900473ffffffffffffffffffffffffffffffffffffffff168073ffffffffffffffffffffffffffffffffffffffff1660808173ffffffffffffffffffffffffffffffffffffffff168152505050600160009054906101000a900473ffffffffffffffffffffffffffffffffffffffff166000806101000a81548173ffffffffffffffffffffffffffffffffffffffff021916908373ffffffffffffffffffffffffffffffffffffffff16021790555080600060146101000a81548167ffffffffffffffff021916908367ffffffffffffffff16021790555033600760006101000a81548173ffffffffffffffffffffffffffffffffffffffff021916908373ffffffffffffffffffffffffffffffffffffffff1602179055506000600a8190555050620002e8565b600080fd5b600067ffffffffffffffff82169050919050565b620002908162000271565b81146200029c57600080fd5b50565b600081519050620002b08162000285565b92915050565b600060208284031215620002cf57620002ce6200026c565b5b6000620002df848285016200029f565b91505092915050565b6080516118386200030b6000396000818161040c015261046001526118386000f3fe6080604052600436106100fe5760003560e01c8063a2fb117511610095578063df15c37e11610064578063df15c37e1461033a578063e580f47b14610365578063e97dcb6214610390578063f71d96cb1461039a578063fc2a88c3146103d7576100fe565b8063a2fb11751461027d578063be71248a146102ba578063ce606ee0146102d1578063d8a4676f146102fc576100fe565b80638796ba8c116100d15780638796ba8c146101ad5780638b5b9ccc146101ea578063900aafaf14610215578063a168fa8914610240576100fe565b806312065fe0146101035780631fe543e31461012e57806342619f66146101575780635d495aea14610182575b600080fd5b34801561010f57600080fd5b50610118610402565b6040516101259190610f03565b60405180910390f35b34801561013a57600080fd5b50610155600480360381019061015091906110b7565b61040a565b005b34801561016357600080fd5b5061016c6104ca565b604051610179919061112c565b60405180910390f35b34801561018e57600080fd5b506101976104d0565b6040516101a49190610f03565b60405180910390f35b3480156101b957600080fd5b506101d460048036038101906101cf9190611147565b610750565b6040516101e19190610f03565b60405180910390f35b3480156101f657600080fd5b506101ff610774565b60405161020c9190611264565b60405180910390f35b34801561022157600080fd5b5061022a610802565b6040516102379190610f03565b60405180910390f35b34801561024c57600080fd5b5061026760048036038101906102629190611147565b61080c565b60405161027491906112a1565b60405180910390f35b34801561028957600080fd5b506102a4600480360381019061029f9190611147565b610837565b6040516102b191906112dd565b60405180910390f35b3480156102c657600080fd5b506102cf610876565b005b3480156102dd57600080fd5b506102e6610a4a565b6040516102f391906112dd565b60405180910390f35b34801561030857600080fd5b50610323600480360381019061031e9190611147565b610a70565b6040516103319291906113b6565b60405180910390f35b34801561034657600080fd5b5061034f610b1d565b60405161035c91906114a4565b60405180910390f35b34801561037157600080fd5b5061037a610bab565b6040516103879190610f03565b60405180910390f35b610398610bb1565b005b3480156103a657600080fd5b506103c160048036038101906103bc9190611147565b610c29565b6040516103ce91906114d5565b60405180910390f35b3480156103e357600080fd5b506103ec610c68565b6040516103f99190610f03565b60405180910390f35b600047905090565b7f000000000000000000000000000000000000000000000000000000000000000073ffffffffffffffffffffffffffffffffffffffff163373ffffffffffffffffffffffffffffffffffffffff16146104bc57337f00000000000000000000000000000000000000000000000000000000000000006040517f1cf993f40000000000000000000000000000000000000000000000000000000081526004016104b39291906114f0565b60405180910390fd5b6104c68282610c6e565b5050565b600c5481565b6000600760009054906101000a900473ffffffffffffffffffffffffffffffffffffffff1673ffffffffffffffffffffffffffffffffffffffff163373ffffffffffffffffffffffffffffffffffffffff161461052c57600080fd5b60008054906101000a900473ffffffffffffffffffffffffffffffffffffffff1673ffffffffffffffffffffffffffffffffffffffff16635d3b1d30600254600060149054906101000a900467ffffffffffffffff16600360049054906101000a900461ffff16600360009054906101000a900463ffffffff16600360069054906101000a900463ffffffff166040518663ffffffff1660e01b81526004016105d9959493929190611591565b6020604051808303816000875af11580156105f8573d6000803e3d6000fd5b505050506040513d601f19601f8201168201806040525081019061061c91906115f9565b90506040518060400160405280600015158152602001600067ffffffffffffffff81111561064d5761064c610f74565b5b60405190808252806020026020018201604052801561067b5781602001602082028036833780820191505090505b508152506004600083815260200190815260200160002060008201518160000160006101000a81548160ff02191690831515021790555060208201518160010190805190602001906106ce929190610df6565b509050506005819080600181540180825580915050600190039060005260206000200160009091909190915055806006819055507fcc58b13ad3eab50626c6a6300b1d139cd6ebb1688a7cced9461c2f7e762665ee81600360069054906101000a900463ffffffff16604051610745929190611626565b60405180910390a190565b6005818154811061076057600080fd5b906000526020600020016000915090505481565b606060088054806020026020016040519081016040528092919081815260200182805480156107f857602002820191906000526020600020905b8160009054906101000a900473ffffffffffffffffffffffffffffffffffffffff1673ffffffffffffffffffffffffffffffffffffffff16815260200190600101908083116107ae575b5050505050905090565b6000600a54905090565b60046020528060005260406000206000915090508060000160009054906101000a900460ff16905081565b6009818154811061084757600080fd5b906000526020600020016000915054906101000a900473ffffffffffffffffffffffffffffffffffffffff1681565b600760009054906101000a900473ffffffffffffffffffffffffffffffffffffffff1673ffffffffffffffffffffffffffffffffffffffff163373ffffffffffffffffffffffffffffffffffffffff16146108d057600080fd5b7fffffffffffffffffffffffffffffffffffffffffffffffffffffffffffffffff600c5403610934576040517f08c379a000000000000000000000000000000000000000000000000000000000815260040161092b906116ac565b60405180910390fd5b6000600c5490506008818154811061094f5761094e6116cc565b5b9060005260206000200160009054906101000a900473ffffffffffffffffffffffffffffffffffffffff1673ffffffffffffffffffffffffffffffffffffffff166108fc479081150290604051600060405180830381858888f193505050501580156109bf573d6000803e3d6000fd5b50600067ffffffffffffffff8111156109db576109da610f74565b5b604051908082528060200260200182016040528015610a095781602001602082028036833780820191505090505b5060089080519060200190610a1f929190610e43565b507fffffffffffffffffffffffffffffffffffffffffffffffffffffffffffffffff600c8190555050565b600760009054906101000a900473ffffffffffffffffffffffffffffffffffffffff1681565b600060606000600460008581526020019081526020016000206040518060400160405290816000820160009054906101000a900460ff1615151515815260200160018201805480602002602001604051908101604052809291908181526020018280548015610afe57602002820191906000526020600020905b815481526020019060010190808311610aea575b5050505050815250509050806000015181602001519250925050915091565b60606009805480602002602001604051908101604052809291908181526020018280548015610ba157602002820191906000526020600020905b8160009054906101000a900473ffffffffffffffffffffffffffffffffffffffff1673ffffffffffffffffffffffffffffffffffffffff1681526020019060010190808311610b57575b5050505050905090565b600a5481565b655af3107a4000341015610bc457600080fd5b6008339080600181540180825580915050600190039060005260206000200160009091909190916101000a81548173ffffffffffffffffffffffffffffffffffffffff021916908373ffffffffffffffffffffffffffffffffffffffff160217905550565b60088181548110610c3957600080fd5b906000526020600020016000915054906101000a900473ffffffffffffffffffffffffffffffffffffffff1681565b60065481565b600060088054905082600081518110610c8a57610c896116cc565b5b6020026020010151610c9c919061172a565b905080600c8190555060016004600085815260200190815260200160002060000160006101000a81548160ff02191690831515021790555081600460008581526020019081526020016000206001019080519060200190610cfe929190610df6565b50600960088281548110610d1557610d146116cc565b5b9060005260206000200160009054906101000a900473ffffffffffffffffffffffffffffffffffffffff169080600181540180825580915050600190039060005260206000200160009091909190916101000a81548173ffffffffffffffffffffffffffffffffffffffff021916908373ffffffffffffffffffffffffffffffffffffffff160217905550600a6000815480929190610db39061178a565b91905055507ffe2e2d779dba245964d4e3ef9b994be63856fd568bf7d3ca9e224755cb1bd54d8383604051610de99291906117d2565b60405180910390a1505050565b828054828255906000526020600020908101928215610e32579160200282015b82811115610e31578251825591602001919060010190610e16565b5b509050610e3f9190610ecd565b5090565b828054828255906000526020600020908101928215610ebc579160200282015b82811115610ebb5782518260006101000a81548173ffffffffffffffffffffffffffffffffffffffff021916908373ffffffffffffffffffffffffffffffffffffffff16021790555091602001919060010190610e63565b5b509050610ec99190610ecd565b5090565b5b80821115610ee6576000816000905550600101610ece565b5090565b6000819050919050565b610efd81610eea565b82525050565b6000602082019050610f186000830184610ef4565b92915050565b6000604051905090565b600080fd5b600080fd5b610f3b81610eea565b8114610f4657600080fd5b50565b600081359050610f5881610f32565b92915050565b600080fd5b6000601f19601f8301169050919050565b7f4e487b7100000000000000000000000000000000000000000000000000000000600052604160045260246000fd5b610fac82610f63565b810181811067ffffffffffffffff82111715610fcb57610fca610f74565b5b80604052505050565b6000610fde610f1e565b9050610fea8282610fa3565b919050565b600067ffffffffffffffff82111561100a57611009610f74565b5b602082029050602081019050919050565b600080fd5b600061103361102e84610fef565b610fd4565b905080838252602082019050602084028301858111156110565761105561101b565b5b835b8181101561107f578061106b8882610f49565b845260208401935050602081019050611058565b5050509392505050565b600082601f83011261109e5761109d610f5e565b5b81356110ae848260208601611020565b91505092915050565b600080604083850312156110ce576110cd610f28565b5b60006110dc85828601610f49565b925050602083013567ffffffffffffffff8111156110fd576110fc610f2d565b5b61110985828601611089565b9150509250929050565b6000819050919050565b61112681611113565b82525050565b6000602082019050611141600083018461111d565b92915050565b60006020828403121561115d5761115c610f28565b5b600061116b84828501610f49565b91505092915050565b600081519050919050565b600082825260208201905092915050565b6000819050602082019050919050565b600073ffffffffffffffffffffffffffffffffffffffff82169050919050565b60006111cb826111a0565b9050919050565b6111db816111c0565b82525050565b60006111ed83836111d2565b60208301905092915050565b6000602082019050919050565b600061121182611174565b61121b818561117f565b935061122683611190565b8060005b8381101561125757815161123e88826111e1565b9750611249836111f9565b92505060018101905061122a565b5085935050505092915050565b6000602082019050818103600083015261127e8184611206565b905092915050565b60008115159050919050565b61129b81611286565b82525050565b60006020820190506112b66000830184611292565b92915050565b60006112c7826111a0565b9050919050565b6112d7816112bc565b82525050565b60006020820190506112f260008301846112ce565b92915050565b600081519050919050565b600082825260208201905092915050565b6000819050602082019050919050565b61132d81610eea565b82525050565b600061133f8383611324565b60208301905092915050565b6000602082019050919050565b6000611363826112f8565b61136d8185611303565b935061137883611314565b8060005b838110156113a95781516113908882611333565b975061139b8361134b565b92505060018101905061137c565b5085935050505092915050565b60006040820190506113cb6000830185611292565b81810360208301526113dd8184611358565b90509392505050565b600081519050919050565b600082825260208201905092915050565b6000819050602082019050919050565b61141b816112bc565b82525050565b600061142d8383611412565b60208301905092915050565b6000602082019050919050565b6000611451826113e6565b61145b81856113f1565b935061146683611402565b8060005b8381101561149757815161147e8882611421565b975061148983611439565b92505060018101905061146a565b5085935050505092915050565b600060208201905081810360008301526114be8184611446565b905092915050565b6114cf816111c0565b82525050565b60006020820190506114ea60008301846114c6565b92915050565b600060408201905061150560008301856112ce565b61151260208301846112ce565b9392505050565b6000819050919050565b61152c81611519565b82525050565b600067ffffffffffffffff82169050919050565b61154f81611532565b82525050565b600061ffff82169050919050565b61156c81611555565b82525050565b600063ffffffff82169050919050565b61158b81611572565b82525050565b600060a0820190506115a66000830188611523565b6115b36020830187611546565b6115c06040830186611563565b6115cd6060830185611582565b6115da6080830184611582565b9695505050505050565b6000815190506115f381610f32565b92915050565b60006020828403121561160f5761160e610f28565b5b600061161d848285016115e4565b91505092915050565b600060408201905061163b6000830185610ef4565b6116486020830184611582565b9392505050565b600082825260208201905092915050565b7f4e6f2077696e6e65722f616c7265616479207061696421000000000000000000600082015250565b600061169660178361164f565b91506116a182611660565b602082019050919050565b600060208201905081810360008301526116c581611689565b9050919050565b7f4e487b7100000000000000000000000000000000000000000000000000000000600052603260045260246000fd5b7f4e487b7100000000000000000000000000000000000000000000000000000000600052601260045260246000fd5b600061173582610eea565b915061174083610eea565b9250826117505761174f6116fb565b5b828206905092915050565b7f4e487b7100000000000000000000000000000000000000000000000000000000600052601160045260246000fd5b600061179582610eea565b91507fffffffffffffffffffffffffffffffffffffffffffffffffffffffffffffffff82036117c7576117c661175b565b5b600182019050919050565b60006040820190506117e76000830185610ef4565b81810360208301526117f98184611358565b9050939250505056fea2646970667358221220c6b9057f3b0855e2cbf9787c194062782ef9d4ef5990f0ddb28fd7bba031690a64736f6c63430008110033",
  "immutableReferences": {
    "10": [
      {
        "length": 32,
        "start": 1036
      },
      {
        "length": 32,
        "start": 1120
      }
    ]
  },
  "source": "// SPDX-License-Identifier: MIT\r\npragma solidity ^0.8.17;\r\n\r\nimport \"@chainlink/contracts/src/v0.8/interfaces/VRFCoordinatorV2Interface.sol\";\r\nimport \"@chainlink/contracts/src/v0.8/VRFConsumerBaseV2.sol\";\r\n\r\ncontract Lottery is VRFConsumerBaseV2 {\r\n    VRFCoordinatorV2Interface COORDINATOR;\r\n    uint64 s_subscriptionId;\r\n    address vrfCoordinator = 0x2Ca8E0C643bDe4C2E08ab1fA0da3401AdAD7734D;\r\n    bytes32 s_keyHash =\r\n        0x79d3d8832d904592c0bf9818b621522c988bb8b0c05cdc3b15aea1b6e8db0c15;\r\n    uint32 callbackGasLimit = 40000;\r\n    uint16 requestConfirmations = 3;\r\n    uint32 numWords = 1;\r\n\r\n    // Fun\r\n    event RequestSent(uint256 requestId, uint32 numWords);\r\n    event RequestFulfilled(uint256 requestId, uint256[] randomWords);\r\n\r\n    struct RequestStatus {\r\n        bool fulfilled; // whether the request has been successfully fulfilled\r\n        uint256[] randomWords;\r\n    }\r\n    mapping(uint256 => RequestStatus) public s_requests; /* requestId --> requestStatus */\r\n\r\n    // past requests Id.\r\n    uint256[] public requestIds;\r\n    uint256 public lastRequestId;\r\n\r\n    // Our stuff\r\n    address public contractOwner;\r\n    address payable[] public players;\r\n    address[] public winners;\r\n    uint256 public lotteryId;\r\n    bytes32 internal keyHash;\r\n    int256 public randomResult = -1;\r\n\r\n    constructor(uint64 subscriptionId) VRFConsumerBaseV2(vrfCoordinator) {\r\n        COORDINATOR = VRFCoordinatorV2Interface(vrfCoordinator);\r\n        s_subscriptionId = subscriptionId;\r\n        contractOwner = msg.sender;\r\n        lotteryId = 0;\r\n    }\r\n\r\n    function fulfillRandomWords(\r\n        uint256 _requestId,\r\n        uint256[] memory _randomWords\r\n    ) internal override {\r\n        uint256 randomIndex = (_randomWords[0] % players.length);\r\n        randomResult = int256(randomIndex);\r\n\r\n        s_requests[_requestId].fulfilled = true;\r\n        s_requests[_requestId].randomWords = _randomWords;\r\n        winners.push(players[randomIndex]);\r\n        lotteryId++;\r\n\r\n        emit RequestFulfilled(_requestId, _randomWords);\r\n    }\r\n\r\n    function payWinner() public onlyContractOwner {\r\n        require(randomResult != -1, \"No winner/already paid!\");\r\n        uint index = uint256(randomResult);\r\n        players[index].transfer(address(this).balance);\r\n        players = new address payable[](0);\r\n        randomResult = -1;\r\n    }\r\n\r\n    function getRequestStatus(uint256 _requestId)\r\n        external\r\n        view\r\n        returns (bool fulfilled, uint256[] memory randomWords)\r\n    {\r\n        RequestStatus memory request = s_requests[_requestId];\r\n        return (request.fulfilled, request.randomWords);\r\n    }\r\n\r\n    function enter() public payable {\r\n        require(msg.value >= 0.0001 ether);\r\n        players.push(payable(msg.sender));\r\n    }\r\n\r\n    function getPlayers() public view returns (address payable[] memory) {\r\n        return players;\r\n    }\r\n\r\n    function getBalance() public view returns (uint256) {\r\n        return address(this).balance;\r\n    }\r\n\r\n    function getLotteryId() public view returns (uint256) {\r\n        return lotteryId;\r\n    }\r\n\r\n    function pickWinner() public onlyContractOwner returns (uint256 requestId) {\r\n        requestId = COORDINATOR.requestRandomWords(\r\n            s_keyHash,\r\n            s_subscriptionId,\r\n            requestConfirmations,\r\n            callbackGasLimit,\r\n            numWords\r\n        );\r\n        s_requests[requestId] = RequestStatus({\r\n            randomWords: new uint256[](0),\r\n            fulfilled: false\r\n        });\r\n\r\n        requestIds.push(requestId);\r\n        lastRequestId = requestId;\r\n\r\n        emit RequestSent(requestId, numWords);\r\n    }\r\n\r\n    function getWinners() public view returns (address[] memory) {\r\n        return winners;\r\n    }\r\n\r\n    modifier onlyContractOwner() {\r\n        require(msg.sender == contractOwner);\r\n        _;\r\n    }\r\n}\r\n",
  "sourcePath": "/home/kite/dapps/LotteryDapp/backend/contracts/Lottery.sol",
  "compiler": {
    "name": "solc",
    "version": "0.8.17+commit.8df45f5f.Emscripten.clang"
  },
  "schemaVersion": "3.4.11",
  "updatedAt": "2023-02-10T12:02:45.693Z",
  "devdoc": {
    "kind": "dev",
    "methods": {},
    "version": 1
  },
  "userdoc": {
    "kind": "user",
    "methods": {},
    "version": 1
  }
}